:100000000C9462000C948A000C948A000C948A0070
:100010000C948A000C948A000C948A000C948A0038
:100020000C948A000C948A000C948A000C94F503BA
:100030000C948A000C948A000C948A000C948A0018
:100040000C94AB030C948A000C9479030C94530326
:100050000C948A000C948A000C948A000C948A00F8
:100060000C948A000C948A000000000024002700F1
:100070002A0000000000250028002B0000000000DE
:1000800023002600290004040404040404040202DA
:100090000202020203030303030301020408102007
:1000A0004080010204081020010204081020000012
:1000B0000008000201000003040700000000000027
:1000C0000000B10411241FBECFEFD8E0DEBFCDBFCA
:1000D00011E0A0E0B1E0EEEEFFE002C005900D926D
:1000E000A633B107D9F722E0A6E3B1E001C01D9223
:1000F000A231B207E1F710E0C2E6D0E004C02197D8
:10010000FE010E94EF07C136D107C9F70E940E0514
:100110000C94F5070C9400008F929F92AF92BF92BF
:10012000FF920F931F93CF93DF93F0900F022BE07A
:100130002F1508F44CC02091110208E512E0021BB3
:10014000110927FD1395000F111F000F111F20919A
:100150001002C8E8D0E0C21BD10927FDD395CC0F0F
:10016000DD1FCC0FDD1F4E010D2E000CAA08BB08B1
:100170009801012E000C440B550B281939094A0926
:100180005B09DC010E94AA0724EB30E040E050E06C
:100190000E948007820E931EA41EB51E8C169D061B
:1001A0002CF0E801801691060CF4E4012297CC0FA4
:1001B000DD1F2FB7F8948F2D90E0FC01EE0FFF1F8D
:1001C000E80FF91FE651FE4FD283C1832FBFDF91A5
:1001D000CF911F910F91FF90BF90AF909F908F9004
:1001E0000895AF92BF92CF92DF92EF92FF920F935A
:1001F0001F93CF93DF936C017B018B01040F151FBD
:10020000EB015E01AE18BF08C017D10759F0699124
:10021000D601ED91FC910190F081E02DC601099588
:10022000892B79F7C501DF91CF911F910F91FF9035
:10023000EF90DF90CF90BF90AF900895FC01538D69
:10024000448D252F30E0842F90E0821B930B5417B0
:1002500010F0CF96089501970895FC01918D828D3D
:10026000981761F0A28DAE0FBF2FB11D5D968C91D6
:10027000928D9F5F9F73928F90E008958FEF9FEF15
:100280000895FC01918D828D981731F0828DE80FD1
:10029000F11D858D90E008958FEF9FEF0895FC018B
:1002A000918D228D892F90E0805C9F4F821B910958
:1002B0008F73992708958DE491E00E944F0121E00A
:1002C000892B09F420E0822F089580E090E0892BAB
:1002D00029F00E945B0181110C9400000895FC013B
:1002E000A48DA80FB92FB11DA35ABF4F2C91848D97
:1002F00090E001968F739927848FA689B7892C93F4
:10030000A089B1898C91837080648C93938D848D46
:10031000981306C00288F389E02D80818F7D808349
:100320000895EF92FF920F931F93CF93DF93EC0109
:1003300081E0888F9B8D8C8D98131AC0E889F9898C
:10034000808185FF15C09FB7F894EE89FF8960838F
:10035000E889F98980818370806480839FBF81E010
:1003600090E0DF91CF911F910F91FF90EF90089552
:10037000F62E0B8D10E00F5F1F4F0F731127E02E2D
:100380008C8D8E110CC00FB607FCFACFE889F98965
:10039000808185FFF5CFCE010E946F01F1CFEB8DFB
:1003A000EC0FFD2FF11DE35AFF4FF0829FB7F89439
:1003B0000B8FEA89FB8980818062CFCFCF93DF9357
:1003C000EC01888D8823B9F0AA89BB89E889F9896D
:1003D0008C9185FD03C0808186FD0DC00FB607FCA2
:1003E000F7CF8C9185FFF2CF808185FFEDCFCE01D5
:1003F0000E946F01E9CFDF91CF910895833081F0A2
:1004000028F4813099F08230A9F008958730A9F05E
:100410008830C9F08430B1F4809180008F7D03C0B2
:10042000809180008F7780938000089584B58F77C6
:1004300084BD089584B58F7DFBCF8091B0008F7708
:100440008093B00008958091B0008F7DF9CFCF9355
:10045000DF93282F30E0F901E255FF4F8491F90135
:10046000E656FF4FD491F901EA57FF4FC491CC23D0
:10047000A1F081110E94FE01EC2FF0E0EE0FFF1FB2
:10048000E458FF4FA591B491EC91ED2381E090E009
:1004900009F480E0DF91CF91089580E090E0FACFF9
:1004A0001F93CF93DF93282F30E0F901E255FF4FE0
:1004B0008491F901E656FF4FD491F901EA57FF4FB5
:1004C000C491CC23A9F0162F81110E94FE01EC2FBC
:1004D000F0E0EE0FFF1FEE58FF4FA591B4918FB7DC
:1004E000F894EC91111108C0D095DE23DC938FBFF6
:1004F000DF91CF911F910895DE2BF8CFCF93DF933B
:1005000090E0FC01E656FF4F24918A579F4FFC0173
:1005100084918823D1F090E0880F991FFC01E8595D
:10052000FF4FA591B491FC01EE58FF4FC591D491B6
:1005300061110EC09FB7F8948C91E22FE0958E2345
:100540008C932881E223E8839FBFDF91CF910895A8
:100550008FB7F894EC91E22BEC938FBFF6CF3FB7B7
:10056000F8948091380190913901A0913A01B091AD
:100570003B0126B5A89B05C02F3F19F00196A11D90
:10058000B11D3FBFBA2FA92F982F8827BC01CD01DD
:10059000620F711D811D911D42E0660F771F881F3C
:1005A000991F4A95D1F70895FC0101900020E9F7C1
:1005B0003197AF01481B590BBC018DE491E00C94BD
:1005C000F1008F929F92AF92BF920F931F93CF93A0
:1005D000DF93CDB7DEB7A1970FB6F894DEBF0FBE9D
:1005E000CDBF19A2423008F44AE08E010F5D1F4FC3
:1005F000842E912CB12CA12CA50194010E94B2074C
:10060000E62FB901CA01EA30F4F4E05DD801EE93B7
:100610008D01232B242B252B79F790E080E0109778
:1006200019F0CD010E94D402A1960FB6F894DEBF56
:100630000FBECDBFDF91CF911F910F91BF90AF90B3
:100640009F908F900895E95CE1CFCF92DF92EF9277
:10065000FF92CF93DF936B017C01F7FE1FC06DE229
:100660008DE491E00E949101EC0166277727CB0190
:100670006C197D098E099F094AE00E94E102C80FAA
:10068000D91F83E191E00E94D4028C0F9D1FDF915E
:10069000CF91FF90EF90DF90CF9008954AE00E94B5
:1006A000E102EC01EECF1F920F920FB60F921124D0
:1006B0002F933F934F935F936F937F938F939F936A
:1006C000AF93BF93EF93FF938DE491E00E946F018E
:1006D000FF91EF91BF91AF919F918F917F916F911A
:1006E0005F914F913F912F910F900FBE0F901F90F0
:1006F00018951F920F920FB60F9211242F938F937C
:100700009F93EF93FF93E0915D01F0915E018081F3
:10071000E0916301F091640182FD1BC090818091A2
:1007200066018F5F8F7320916701821741F0E0911E
:100730006601F0E0E35BFE4F958F80936601FF91C9
:10074000EF919F918F912F910F900FBE0F901F905F
:1007500018958081F4CF1F920F920FB60F9211243B
:100760002F933F938F939F93AF93BF9380913C01BF
:1007700090913D01A0913E01B0913F013091370130
:1007800023E0230F2D3758F50196A11DB11D2093AD
:10079000370180933C0190933D01A0933E01B093BB
:1007A0003F018091380190913901A0913A01B091B7
:1007B0003B010196A11DB11D809338019093390131
:1007C000A0933A01B0933B01BF91AF919F918F915C
:1007D0003F912F910F900FBE0F901F90189526E814
:1007E000230F0296A11DB11DD2CF1F920F920FB6FB
:1007F0000F9211242F933F934F935F936F937F93A7
:100800008F939F93AF93BF93CF93DF93EF93FF9318
:1008100080913601C0910E02D0E087FF24C0109273
:10082000850010928400809136018F5F809336019D
:1008300080913601082E000C990B8C179D0724F42B
:10084000809136018C30C4F18091840090918500B4
:10085000049680349C4908F47AC080918400909179
:100860008500049676C080913601082E000C990B05
:100870008C179D07C4F6E09136018E2FEE0F990B71
:10088000FC01EE0FFF1FE80FF91FE651FE4F8081BC
:1008900086FFC9CFE09136018E2FEE0F990BFC0138
:1008A000EE0FFF1FE80FF91FE651FE4F808160E059
:1008B0008F730E945002B7CF209184003091850041
:1008C000E09136018E2FEE0F990BFC01EE0FFF1F0A
:1008D000E80FF91FE651FE4F81819281820F931F2D
:1008E0009093890080938800E09136018E2FEE0F5F
:1008F000990BFC01EE0FFF1FE80FF91FE651FE4FA9
:10090000808186FF11C0E09136018E2FEE0F990B8A
:10091000FC01EE0FFF1FE80FF91FE651FE4F80812B
:1009200061E08F730E945002FF91EF91DF91CF91B0
:10093000BF91AF919F918F917F916F915F914F91F7
:100940003F912F910F900FBE0F901F90189580E44C
:100950009CE990938900809388008FEF8093360103
:10096000E3CF1092500110924F0188EE93E0A0E087
:10097000B0E08093510190935201A0935301B09342
:10098000540185E091E090934E0180934D0185ECF8
:1009900090E090935A018093590184EC90E09093F9
:1009A0005C0180935B0180EC90E090935E0180930A
:1009B0005D0181EC90E09093600180935F0182EC97
:1009C00090E0909362018093610186EC90E09093B7
:1009D0006401809363011092660110926701109286
:1009E00068011092690180910E028C3098F491E0B8
:1009F000980F90930E0280930F0290E0FC01EE0F8F
:100A0000FF1FE80FF91FE651FE4F88EB9BE0928332
:100A1000818308958FEF80930F020895789484B5B1
:100A2000826084BD84B5816084BD85B5826085BDEA
:100A300085B5816085BD80916E00816080936E0078
:100A4000109281008091810082608093810080916A
:100A5000810081608093810080918000816080931B
:100A600080008091B10084608093B1008091B000DB
:100A700081608093B00080917A00846080937A00D6
:100A800080917A00826080937A0080917A00816000
:100A900080937A0080917A00806880937A00109227
:100AA000C10061E088E00E947E0261E089E00E946E
:100AB0007E0261E08AE00E947E0261E08BE00E949B
:100AC0007E0261E088E00E9450022091000130E047
:100AD000A0E1B7E20E94D4076093440170934501FE
:100AE000809346019093470161E08DE00E947E0271
:100AF00060E08CE00E947E0280910F028C3008F052
:100B000051C061E083E00E947E0280910F02282F95
:100B100030E0F901EE0FFF1FE20FF31FE651FE4F29
:100B20009081907C93609083109210021092110239
:100B30002CE0622F0E94E307829FB001112430E075
:100B400020E0AB01420F531FFA01EE0FFF1FE40F2D
:100B5000F51FE651FE4F908196FD16C02F5F3F4F67
:100B60002C30310571F781110FC01092800082E0A6
:100B7000809381001092850010928400B19A809138
:100B80006F00826080936F00E0910F028E2F90E0E3
:100B9000FC01EE0FFF1FE80FF91FE651FE4F8081A9
:100BA0008064808390E080E00E948C002FB7F894EE
:100BB00080913C0190913D01A0913E01B0913F0197
:100BC0002FBF8093400190934101A0934201B093C5
:100BD0004301E0915D01F0915E0182E08083E0914C
:100BE0005901F0915A011082E0915B01F0915C0192
:100BF0008FEC808310926501E0916101F0916201B8
:100C000086E08083E0915F01F091600180818061E6
:100C10008083E0915F01F091600180818860808332
:100C2000E0915F01F0916001808180688083E091B4
:100C30005F01F091600180818F7D808386E191E08A
:100C40000E94D40260914401709145018091460157
:100C5000909147010E94250383E291E00E94D40213
:100C600060E177E280E090E00E94250390E9492E60
:100C700055245394612C712CC0E0D0E011E0809198
:100C80004C01882399F0609148017091490180914D
:100C90004A0190914B01A30192010E9480076630A6
:100CA00071058105910514F410924C018CE00E94AD
:100CB0002702892B09F46AC080914C01811166C01A
:100CC000809100018F5F803108F005C180930001A1
:100CD00060E088E00E94500260E089E00E945002DB
:100CE00060E08AE00E94500260E08BE00E945002C7
:100CF00000910001202F2270D22E802F8470E82EC8
:100D0000202F2870F22E00FF04C061E088E00E94CE
:100D10005002DD2021F061E089E00E945002EE20C7
:100D200021F061E08AE00E945002FF2021F061E0A2
:100D30008BE00E945002C02ED12CF12CE12CA0E1BE
:100D4000B7E2A70196010E949F0760934401709348
:100D50004501809346019093470110934C014AE06E
:100D6000C701B6010E94E10283E191E00E94D40232
:100D700086E191E00E94D4026091440170914501A6
:100D800080914601909147010E942503809148017E
:100D900090914901A0914A01B0914B0140914001CD
:100DA000509141016091420170914301841B950B68
:100DB000A60BB70B4091440150914501609146014B
:100DC00070914701481759076A077B070CF052C01A
:100DD00084EB90E00E948C000E94AF024B015C010A
:100DE00080EDC82E87E0D82EE12CF12C0E94AF02B6
:100DF000681979098A099B09683E73408105910544
:100E0000A8F381E0C81AD108E108F10828EE820EA3
:100E100023E0921EA11CB11CC114D104E104F10411
:100E200029F790E080E00E948C002FB7F894809121
:100E30003C0190913D01A0913E01B0913F012FBF37
:100E40008093400190934101A0934201B0934301EC
:100E50008FE291E00E94D40283E191E00E94D402EB
:100E60006091440170914501809146019091470144
:100E70000E9425032FB7F89460913C0170913D01C9
:100E800080913E0190913F012FBF60934801709384
:100E9000490180934A0190934B0128EE33E040E0F2
:100EA00050E00E9480076B017C0186E0C816D104E7
:100EB000E104F1049CF08DE00E942702892BC1F42B
:100EC000209709F4DCCE0E945B01882309F4D7CE79
:100ED0000E940000D4CE10930001FACE8DE00E9453
:100EE000270261E0892B39F78DE00E945002E8CF9C
:100EF00026E9C216D104E104F10414F360E0F4CF52
:100F0000052E97FB1EF400940E94970757FD07D00B
:100F10000E94B20707FC03D04EF40C94970750953B
:100F20004095309521953F4F4F4F5F4F08959095D5
:100F30008095709561957F4F8F4F9F4F08950E94C8
:100F4000D407A59F900DB49F900DA49F800D911D77
:100F500011240895B7FF0C949F070E949F07821BDE
:100F6000930B0895A1E21A2EAA1BBB1BFD010DC015
:100F7000AA1FBB1FEE1FFF1FA217B307E407F50749
:100F800020F0A21BB30BE40BF50B661F771F881F25
:100F9000991F1A9469F760957095809590959B01BB
:100FA000AC01BD01CF010895A29FB001B39FC00164
:100FB000A39F700D811D1124911DB29F700D811D85
:100FC0001124911D0895991B79E004C0991F96176B
:100FD00008F0961B881F7A95C9F780950895EE0F43
:0E0FE000FF1F0590F491E02D0994F894FFCFC7
:100FEE0001000000009101F1001E01DE014F012DF4
:100FFE000141010D0A0074696D65546F526F6C6C7E
:10100E003A20005072657363616C65723A2000720B
:06101E006F6C6C21000064
:00000001FF
